:0400000080317E28A5
:100008007E14803120007F08FC008B1A0B1D7A2893
:100018000130F3070030F43D003074020A30031950
:100028007302031C7928F301F4010130F800760A01
:100038001E28F835890B1D28780824009100141C07
:1000480023281108F8007808F5007008F8007108EE
:10005800F9007208FA007608FB000230FB35FF3E13
:10006800031D32287B35890A3C28FA36F90CF80C2E
:10007800890B392878099100141C40281108F800C8
:100088007808F50022008E168E1201302000A00795
:100098000030A13D0130F6070030F73D003077020F
:1000A800033003197602031C5B28F601F7010630BA
:1000B8002102403003192002031C7928A001A10164
:1000C8007008F8007108F9007208FA000130F83574
:1000D800F90DFA0D890B6B2801307807F000003014
:1000E800793DF10000307A3DF2000B117C08FF00E9
:1000F8007E10090080318028F001F101F201F3013E
:10010800F401F501F601F701A001A1017E1020001C
:100118008031CE2824008C0127008C0122008C011C
:1001280024008E0127008E0122008E0127009101F4
:10013800920122009713971221008C0123008C0151
:100148000A3021008E0023008E0121001D1022009C
:10015800981398129A139113931327009C13200055
:100168009E1322001D139D122100951795129515B7
:100178002400141795161512F03095058B178B1659
:100188000B17080021001908873970389900FC30CE
:10019800990508008031C620803180318E20803159
:0201A800D42859
:020000040001F9
:04000E00E4FFFEDF2E
:00000001FF
