:0400000080312F28F4
:100008007E14803120007F08F6008B1A0B1D2B28E8
:100018000B110130F0070030F13D003071020A3059
:1000280003197002031C2B28F001F1010130F207BB
:100038000030F33D0C307302803003197202031C48
:100048002B28F201F3010130F5007508F407760852
:10005800FF007E10090080313128F001F101F20122
:10006800F301F4017E1020008031672824008C0100
:1000780027008C0122008C0124008E0127008E01AC
:1000880022008E01270091019201220097139712F6
:1000980021008C0123008C0121008E0123008E0198
:1000A80021001D102200981398129A13911393138C
:1000B80027009C1320009E13210095179512951573
:1000C8008B178B16080080317120803180313A20DF
:1000D8008031740822008E006D28210019088739A4
:0A00E80070389900FC3099050800FB
:020000040001F9
:04000E00E4FFFEDF2E
:00000001FF
