:0400000080313928EA
:100008007E14803120007F08F8008B1A0B1D3528DC
:100018000B110130F0070030F13D0030F23D0030A7
:10002800F33D7308031D1E28203071020330723B14
:10003800031C35280030F3000030F2000030F100D6
:100048000030F0000130F4070030F53D273075022C
:10005800103003197402031C35280130F7007708A3
:10006800F6077808FF007E10090080313B28F00170
:10007800F101F201F301F401F501F6017E1020000F
:100088008031732824008C0127008C0122008C0108
:1000980024008E0127008E0122008E012700910185
:1000A800920122009713971221008C0123008C01E2
:1000B80021008E0123008E0121001D1022009813BB
:1000C80098129A139113931327009C1320009E13E0
:1000D80021009517951295158B178B1608008031FE
:1000E8007D208031803146208031760822008E00C4
:1000F800792821001908873970389900FC3099054A
:020108000800ED
:020000040001F9
:04000E00FFFFFEFFF3
:00000001FF
