:0400000080310D2816
:100008007E14803120007F08F0007008FF007E1009
:10001800090080310F287E10200080313B28240001
:100028008C0127008C0122008C0124008E012700FE
:100038008E0122008E012700910192012200971360
:10004800971221008C0123008C0121008E012300CE
:100058008E0121001D102200981398129A139113F3
:10006800931327009C1320009E138B1308008031E4
:1000780053208031803113208031F301730822002E
:100088008E000130F1007108F3078230F200DD3094
:10009800F100F10B4D28F20B4D28003242282100C7
:0E00A8001908873970389900FC309905080056
:020000040001F9
:04000E00FFFFFEFFF3
:00000001FF
