:0400000080313F28E4
:100008007E14803120007F08F7008B1A0B1D3A28D8
:100018000B11023022008E000130F0070030F13D54
:100028000030F23D0030F33D7308031D21282030D5
:1000380071020330723B031C3A280030F300003091
:10004800F2000030F1000030F0000130F407003019
:10005800F53D27307502103003197402031C3A2845
:10006800F401F5010130F6007608F807770820005A
:10007800FF007E1009008031412880318D20F80072
:10008800F001F101F201F301F401F5017E10200005
:1000980080317B2824008C0127008C0122008C01F0
:1000A80024008E0127008E0122008E012700910175
:1000B800920122009713971221008C0123008C01D2
:1000C80021008E0123008E0121001D1022009813AB
:1000D80098129A139113931327009C1320009E13D0
:1000E80021009517951295158B178B1608008031EE
:1000F8008520803180314E208031013022008E00F1
:10010800842821001908873970389900FC3099052E
:0401180008000F3498
:020000040001F9
:04000E00E7FFFEFF0B
:00000001FF
