:0400000080315228D1
:100008007E14803120007F08FB008B1A0B1D4D28C1
:100018000130B2070030B33D003033020A30031913
:100028003202031C4C28B201B30181312D218031E9
:1000380001302000B4070030B53D0130F40700302E
:10004800F53D00307502033003197402031C402883
:10005800F401F50100307D02093003197C02031C0C
:1000680039280130FC000030FD00803175208031D6
:100078000130FC070030FD3D003020003502C8305B
:1000880003193402031C4C28B401B5018031F72050
:100098000B117B082000FF007E10090080315428D6
:1000A800813185218031FC00813186218031FD003C
:1000B8005E30840081308500203086000030870063
:1000C800123081317F21F001F101F201F301F401D5
:1000D800F501B201B301B401B5017E1020008131F0
:1000E8007829F901FA01F901FA017A08803AF6004B
:1000F80080307602031D8228123079020318080026
:100108007908203E860087010108F600F7017D087E
:100118007702031D91287C087602031CA828700822
:10012800F6007108F7007208F8000130F635F70D8F
:10013800F80D890B9A2801307607F0000030773DDA
:10014800F1000030783DB9287008F6007108F70012
:100158007208F8000130F635F70DF80D890BAF2855
:100168007608F0007708F1007808F2000130F90706
:100178000030FA3D792824008C0127008C012200E8
:100188008C0124008E0127008E0122008E01270099
:100198009101920122009713971221008C012300EC
:1001A8008C010A3021008E0023008E0121001D10D1
:1001B8002200981398129A139113931327009C13F3
:1001C80020009E1322001D139D12210095179512E1
:1001D80095152400141795161512F03095058B17F0
:1001E8008B160B170800F801F90120002008F6000B
:1001F8007608F700F801F9017908803AF6008030AE
:100208007602031D09291130780203182729780876
:10021800013E203E860087010108F6007808203E4E
:1002280086008701760881000130F8070030F93D23
:100238007908803AF60080307602031D25291130AE
:100248007802031C0B297708F60076082000B10015
:1002580008000130F600740A3229F635890B312975
:10026800760824009100141C37291108F600760836
:10027800F3007008F6007108F7007208F8007408B7
:10028800F9000230F935FF3E031D46297935890A00
:100298005029F836F70CF60C890B4D297609910090
:1002A800141C54291108F6007608F30022008E1653
:1002B8008E12080008340734063405340434033435
:1002C8000234013400340834073406340534043465
:1002D8000334023401340034210019088739703896
:1002E8009900FC30990508008131702181318031F5
:1002F800BF2081317E29FE0012001E00FE0B8029DE
:0603080000340134003452
:020000040001F9
:04000E00E4FFFEDF2E
:00000001FF
