:0400000080313828EB
:100008007E14803120007F08FB008B1A0B1D3428DA
:100018000B110130F3070030F43D003074020A3050
:1000280003197302031C3428F301F4010130F707A4
:100038000030F83D00307602033003197502031CC6
:100048002728F501F60100307802C8300319770235
:10005800031C3428F701F8010130FA007A08F9077F
:100068007B08FF007E10090080313A28F001F10179
:10007800F201F301F401F501F601F701F801F901C4
:100088007E1020008031802824008C0127008C01FC
:1000980022008C0124008E0127008E0122008E018F
:1000A80027009101920122009713971221008C01D9
:1000B80023008C010A3021008E0023008E012100CC
:1000C8001D102200981398129A1391139313270066
:1000D8009C1320009E1322001D139D1221009517CA
:1000E800951295152400141795161512F0309505DC
:1000F8008B178B160B1708008031AD2080318031AB
:10010800482080312130FC00FC0B88280130240075
:100118009100141C8D281108FC007C08F90021307E
:10012800FC00FC0B95282400910124001418A12838
:100138002130FC00FC0B9E2899281108FC007C0843
:10014800F90022008E168E122130FC00FC0BAA2822
:10015800AC2821001908873970389900FC309905B6
:0201680008008D
:020000040001F9
:04000E00E4FFFEDF2E
:00000001FF
