:0400000080313628ED
:100008007E14803120007F08F6008B1A0B1D3128E2
:100018000B110130F0070030F13D003071020A3059
:1000280003197002031C3128F001F1010130F207B5
:100038000030F33D0C307302803003197202031C48
:100048003128F201F3010130F5007508F40774084E
:100058002400910022008E168E1276082000FF00E0
:100068007E10090080313828F001F101F201F30116
:10007800F4017E1020008031832824008C012700A1
:100088008C0122008C0124008E0127008E012200A1
:100098008E012700910192012200971397122100E7
:1000A8008C0123008C010A3021008E0023008E0170
:1000B80021001D102200981398129A13911393137C
:1000C80027009C1320009E1322001D139D1221005F
:1000D8009517951295152400141395161512F030DE
:1000E80095058B178B160B17210091150800210019
:1000F8001908873970389900FC3099050800803153
:0C0108007B20803180314120803189282B
:020000040001F9
:04000E00E4FFFEDF2E
:00000001FF
